:020000040800F2
:10000000C80700203D020008F331000859310008FC
:10001000F1310008411E00085537000800000000BB
:10002000000000000000000000000000F7310008A0
:10003000C51F000800000000F53100082532000847
:10004000570200085702000857020008570200082C
:10005000570200085702000857020008570200081C
:10006000570200085702000857020008570200080C
:1000700057020008570200085702000857020008FC
:1000800057020008570200085702000857020008EC
:1000900057020008570200085702000857020008DC
:1000A00057020008570200085702000857020008CC
:1000B00057020008570200085702000857020008BC
:1000C00057020008570200085702000857020008AC
:1000D0005702000857020008493700085702000875
:1000E00057020008570200085702000800F002F803
:1000F00000F094F80AA090E8000C82448344AAF12E
:100100000107DA4501D100F089F8AFF2090EBAE82B
:100110000F0013F0010F18BFFB1A43F0010318473B
:10012000443E0000643E0000103A24BF78C878C105
:10013000FAD8520724BF30C830C144BF04680C60ED
:10014000704700000023002400250026103A28BF35
:1001500078C1FBD8520728BF30C148BF0B60704739
:100160006E2900F07382702900F0B583662903F0D0
:100170001286652903F00F86672903F00C86612932
:1001800003F00B8603681B0A28BF41F08001692930
:1001900000F02082642900F01D82752900F01A8287
:1001A0006F2900F04283782900F08183E92900F06B
:1001B000DD82E42900F0DA82F52900F0D782EF2908
:1001C00000F03F83F82900F080830368DB0928BF33
:1001D00041F08001632901F0C380732901F0C880D8
:1001E000E32901F0D380F32901F0D8800020704783
:1001F0001FB59DE8030000F055F901F047F9040030
:100200000020002103F026FD401C6060002000213A
:1002100003F00AFDE0601FBD10B510BD01F008F944
:100220001146FFF7E5FF03F051FC01F0E5F903B4D7
:10023000FFF7F2FF03BC01F015FA00000948804700
:1002400009480047FEE7FEE7FEE7FEE7FEE7FEE7B8
:10025000FEE7FEE7FEE7FEE704480549054A064BD0
:100260007047000087320008ED000008C801002038
:10027000C8070020C8030020C803002070B5064648
:1002800000F0F4F8056806F10B0020F00704B44212
:100290009CBF002070BD2B466A68BAB11068A042AE
:1002A00010D304F1080188423CBF5068586007D35E
:1002B0005168101941601168091B01605860146091
:1002C000101D70BD13465268002AE7D1214628460A
:1002D00000F0D4F80028DED170BD70B50446051FCB
:1002E00000F0C4F80068002C14BF446870BD002CF6
:1002F00018BFAC423CBF20466468F8D301680A18B6
:10030000AA4218BF456003D12A680546114401601E
:1003100028684119A1421CBF6C6070BD61686960AA
:1003200021680844286070BD1CB50C46064B7B4410
:1003300069460090204600F0A2F904460020694674
:1003400000F0B0F920461CBD73030000014A00F024
:1003500091BB00006C00002010B5431C02E010F8B7
:10036000011B71B18107FAD14FF0013202C88C1A1A
:100370008C4314EAC211F9D0C01A0A0603D0C01E79
:1003800010BDC01A10BD0A0401D0801E10BD0902A4
:10039000FCD0401E10BD4FF0000200B5134694463D
:1003A0009646203922BFA0E80C50A0E80C50B1F1CD
:1003B0002001BFF4F7AF090728BFA0E80C5048BFE1
:1003C0000CC05DF804EB890028BF40F8042B08BF7F
:1003D000704748BF20F8022B11F0804F18BF00F87B
:1003E000012B70474FF0013C50F8042B51F8043BAF
:1003F0009A4221D1A2EB0C03934313EACC1317D1F9
:1004000050F8042B51F8043B9A4215D1A2EB0C038F
:10041000934313EACC130BD150F8042B51F8043B4F
:100420009A4209D1A2EB0C03934313EACC13DBD01D
:100430004FF00000704700BFD01A01BAB1FA81F145
:1004400001F0180122FA01F0CB40C1F12001DBB22A
:10045000C0B2C01A2CFA01F3D11A914311EAC311A8
:10046000E6D17047704770477047000000487047FA
:100470006C010020704770477047704738B50446DC
:100480000A4600206946AFF30080002808BF38BD47
:1004900002460099204600F013FB012038BD0120E0
:1004A00000F0A0BFF8B5AFF30080054600200C4671
:1004B000102000BF0646A819A0420DD93246694651
:1004C0000020AFF30080070008BF00F08BFF00980A
:1004D000A04218BF0546C419FFF7C8FF05600746CC
:1004E000F01D20F007004619284600F00AF8B44233
:1004F00008BFF8BDA21B31463868BDE8F84000F0DF
:10050000DFBA00210160C0E9011070471020704778
:1005100070B5044685690068C10601D5302600E043
:100520002026C00707D070BDD4E90121304690478E
:10053000206A401C20626D1EF6D570BD70B5044661
:1005400085690078C00707D170BDD4E9012120205A
:100550009047206A401C20626D1EF6D570BD096868
:100560004A0501D540B27047C905FCD500B27047B5
:1005700009684A0501D5C0B27047C905FCD580B2EB
:10058000704770B50C460546012A05D028788006CC
:1005900000D5EA69002302E0012305E05B1C9342D9
:1005A00002D2E05C0028F9D1A869E618C01AA86157
:1005B000286A184428622846FFF7AAFF04E0D5E914
:1005C000012114F8010B9047B442F8D32846FFF7F5
:1005D000B5FF70BD2DE9F04106460024106875296D
:1005E000314616A510D0FFF7BAFF002802DA4042C4
:1005F00013A507E031688A0701D512A502E0490773
:1006000004D511A5012401E0FFF7B2FF00210A2261
:1006100006F1240709E0B0FBF2FCB0FBF2F302FBA9
:100620001C00303078541846491C0028F3D123466A
:100630002A463046BDE8F04100F0A1BA00000000B3
:100640002D0000002B00000020000000116802684F
:10065000006A530501D508700AE0D30501D508806A
:1006600006E0130603D5C217C1E9000200E00860E6
:100670000120704701694A1C02610878704700B583
:100680008FB0CDE901310021059105497944CDE9CB
:1006900003101146684600F029F90FB000BD0000B4
:1006A000E5FFFFFF0A6802F8010B0A6070470000CF
:1006B0002DE9FF5F15468A460446DFF8AC80F84412
:1006C0000027D8E900103E46CDE9001010E03AF8C6
:1006D00016106A4602A800F065FE411C07D021787A
:1006E000890603D5E269391891420DD80744761C72
:1006F0002078800602D5E069B84205DDAE42E6DB2F
:100700003AF816000028E2D1A069C01BA06120467B
:10071000FFF7FEFED8E90010CDE90010002017E039
:100720003AF818106A4602A800F03CFEB0F1FF3F0C
:1007300081460BD000250DF1080B05E0D4E901211D
:100740001BF8050090476D1C4D45F7D308F10100DB
:10075000B0428046E4DB206A384420622046FFF73E
:10076000EDFEBDE8FF9F0000063700002DE9F041D7
:100770008046D21D22F007020025D2E90002F529A9
:1007800015A614D0011E72F1000106DA0023D0EB89
:10079000030063EB020211A608E0D8F800108B07F3
:1007A00001D50FA602E0490701D50EA60125114685
:1007B000002408F1240704E000F09CF930323A5597
:1007C000641C50EA0102F7D12B46324621464046CE
:1007D000BDE8F04100F0D3B9000000002D0000009A
:1007E0002B0000002000000030B4002100F12404A0
:1007F00008E002F00705D208303542EA4372DB0810
:100800006554491C52EA0305F3D10468002310A281
:10081000250707D5A40600D421B1C46901230DA280
:10082000641EC46130BC00F0AAB910B5044621466C
:100830001068FFF79DFE02462046BDE810400023E9
:10084000D2E7D21D22F00701D1E90023CCE7000056
:100850000000000030000000F0B40D4601880905DA
:1008600002D5214C7C4402E01F4C7C440E34002114
:1008700000F1240608E002F00F071209E75D42EAE2
:1008800003721B097754491C52EA0307F3D102781B
:100890000023120704D5702D06D009B102231134AC
:1008A0002246F0BC00F06BB901231034F8E770B5B4
:1008B00004460D4621461068FFF75AFE02462946B7
:1008C0002046BDE870400023C6E7D21D22F0070392
:1008D000D3E90023C0E70368126843F020030360F4
:1008E0000823C3610023B7E7683500002DE9F05FF6
:1008F000894604464FF0000ADFF874B1FB44C0F8A3
:1009000020A02046E1688847002874D0252806D01A
:10091000D4E901219047206A401C2062F1E70026BB
:100920005F462046E16888472028054607DB312DD1
:1009300005D2781910F8200C08B10643F1E7B0078A
:1009400001D526F00406C4F81CA00027C4F818A09E
:100950002A2D09D0284602F022FF38B304EB87087D
:10096000303DC8F8185019E059F8041B204604EB34
:1009700087029161E1688847012F054618D1E06937
:10098000002820DA26F020061DE0D8F8180000EB39
:10099000800005EB40003038C8F818002046E168B8
:1009A0008847054602F0FBFE0028EED1012F0AD051
:1009B0002E2D08D12046E16888477F1C0546022F6E
:1009C00046F02006C4DBA069002803DA404246F066
:1009D0000106A061F00701D026F010066C2D0BD0A7
:1009E000682D09D04C2D39D06A2D35D0742D35D0D5
:1009F0007A2D33D016E038E0E1682F46204688474C
:100A0000B842054609D16C2F26D04FF48060E168CA
:100A1000064320468847054604E06C2F1AD04FF461
:100A2000807006430DB3A5F14100192802D8203586
:100A300046F400664A462946204626604E46FFF7A1
:100A40008FFB80B101280BD0F61D26F0070000F1C6
:100A5000080956E74020E4E78020D8E70020D6E7E1
:100A600006F104094DE7284652E7206ABDE8F09FE9
:100A7000F83400002DE9F04115460E46040002D17D
:100A80002C6804B90BA4204600F0C3FC0444207871
:100A900070B127463146384600F0ABFC044420785C
:100AA00010B1002004F8010B38462C60BDE8F0813D
:100AB0000027F9E7000000000048704764010020AB
:100AC000034640688C46002818BF88423CBF034656
:100AD0004068F8D318681844884207D00CF1030026
:100AE00020F00700001D411A521A0146081D0A6035
:100AF000FFF7F3BB30B5B0F10A024FEA900E71F187
:100B000000034EEA817EB0EB0E0061EB91014FEAEB
:100B1000101E4EEA017E10EB0E0041EB11114FEA60
:100B2000102E4EEA016E10EB0E0041EB11214FEA40
:100B3000104E4EEA014E10EB0E0041EB11414018F1
:100B400041F100014FEAD00040EA41704FEAD10183
:100B500010EB80054FEA810444EA907444EB0104F1
:100B60006D1944EB0404521BA3414FF0000348BF2E
:100B70000A3200D530BD401C41F1000130BD2DE9E5
:100B8000F0470D4699469246044600F12408016854
:100B9000880604D5E06921F01001216000E0012001
:100BA000A84201DD471B00E00027A1697A1902EB8A
:100BB0000900081AA0612078C00602D42046FFF779
:100BC000A7FC002608E0D4E901211AF806009047A6
:100BD000206A401C761C20624E45F4DB2078C0065B
:100BE0000AD52046FFF794FC06E0D4E90121302025
:100BF0009047206A401C2062381EA7F10107F4DCF0
:100C000007E0D4E9012118F805009047206A401C4C
:100C10002062281EA5F10105F3DC2046FFF78EFCBB
:100C20002078000602D50220BDE8F0870120FBE70E
:100C300070472DE9FF4F0C461E464FF0FF378BB033
:100C4000D2E90001DDF860800A908A46C1F30A55B6
:100C500005B93D46002108464FF00000BAF1000FEB
:100C600000F4400005DA00EB80004FF4400101EA97
:100C700050004FEA9059B9F1010F00DDB9460A98CA
:100C800050EA4A000ED044F61050A5F2FF35454315
:100C90002F14B8F1000F1ED07542291E1EDDC9F1B8
:100CA00000021CE0B8F1010F4FF0000001D030212C
:100CB00003E0F24305E02154401CB042FBDB304628
:100CC0000022002121540B99C1F80880C1E90020BD
:100CD0000FB0BDE8F08FBD1B6D1CDEE74A4600DAA1
:100CE000694206A800F016FC06AB93E8070003ABC8
:100CF00083E8070050460A9900F0DAFC8DE8070007
:100D0000A0F500501F3800900398002D0ADD42F234
:100D10001F014A460844002303A90390684600F0D7
:100D200043FF09E0A0F500504A461F38002303A9FD
:100D30000390684600F04DFF8DE807000004000CAA
:100D400003D04FF0FF30410800E01046B8F1000F2B
:100D500003D00022009215461EE0751E05D4FFF751
:100D6000C9FE303262556D1EF9D5B34601220843E3
:100D700002D000227F1C04E02078302801D100221C
:100D80007F1E002A099784D01DE0112D07DAFFF796
:100D9000B1FE303262556D1C50EA0102F5D10843B4
:100DA00002D00098C8B10EE00021681E05E0235C67
:100DB000625C63542254401E491C8142F7DBAB46FF
:100DC000A81B401E0990002004F80B000B98099AFC
:100DD000C0F80880C0E9002B7AE711264FF0000820
:100DE00057E72DE9F04F88460446D21D22F007014F
:100DF00091B0D1E90001CDE90A0102F0ACFC024654
:100E00000B98C00F01D02D2007E02068810701D585
:100E10002B2002E0202101EAC000032A099001D022
:100E2000072A05DB03464146204600F033FB0BE171
:100E30002078800601D5E06900E00620B8F1650F52
:100E4000814606D0B8F1660F18D0B8F1670F70D19F
:100E500031E00020B9F1110F009001DB112301E016
:100E600009F101030AAA01A90CA8FFF7E2FEDDE9D6
:100E70000C70002609F10105834647E001204B462E
:100E800000904FF000470AAA01A90CA8FFF7D1FE75
:100E9000DDE90DB00C995D46002610B909F101009D
:100EA0000D18B9EB050003D4C0F1FF3609F10105B7
:100EB000A5EB09002BE0B9F1010F01DA4FF00109B0
:100EC0000020B9F1110F0090484601DD112300E028
:100ED00003460AAA01A90CA8FFF7ABFEDDE90C70D6
:100EE0004D4600268346207800070AD4AB4500DA39
:100EF0005D4601A8012D04DD411911F8011C3029BE
:100F000007D04F4502DA17F1040F04DA01208246B8
:100F10000FE06D1EEEE7002F02DCED1B3E4403E008
:100F2000781CA84200DD7D1CB81B00F1010A4FF0BF
:100F300000472078000703D4AA4501DB4FF0FF3AB1
:100F40000021B7F1004F0DF143088DF8431024D074
:100F500002202B23002F01DA7F422D230A21021EBB
:100F6000A0F1010000DC5FB197FBF1FC97FBF1F20F
:100F700001FB1C7C17460CF1300C08F801CDEEE7A4
:100F8000A8F1010003702188090501D5452100E081
:100F90006521A0F1010800F8011C09980FA9A1EB37
:100FA0000807FF1D00B10120411901EBEA70A1699A
:100FB0003844081A401EA0612078C00602D420469A
:100FC000FFF7A6FA099828B1D4E901219047206AD1
:100FD000401C20622078C00622D52046FFF798FAF0
:100FE0001EE0002E04DBB34502DD01A8805D00E0B9
:100FF0003020D4E901219047206A401C2062761CF1
:10100000AAF101005FEA000A0AD100F03FFAC068C5
:101010000168405CD4E901219047206A401C2062AD
:10102000281EA5F10105DCDC07E0D4E9012118F850
:10103000010B9047206A401C2062381EA7F101076F
:10104000F3DC2046FFF77AFA032011B041E60000F6
:101050002DE9F04F04460D46D21D22F0070089B05D
:10106000D0E900974846394602F075FB0246F80F72
:1010700001D02D2307E02068810701D52B2302E052
:10108000202101EAC0038DF820300BB1012000E0DF
:101090000020032A824601D0072A04DB2946204685
:1010A00000F0F8F93FE12078800601D40D2500E03A
:1010B000E569C7F30A560D2D49DA00214FEA175B9F
:1010C00008464FF00000002F00F4400007DA00EB64
:1010D00080004FF4400100EBD07001EA6000811500
:1010E000012901DD4FF0FF3100224FEA850CBCF1F0
:1010F000180F06D31346ACF118004FF08052C240CF
:1011000003E04FF4801323FA0CF30CF10C0CBCF148
:10111000200F04D3ACF1200C09FA0CF001E007FA1F
:101120000CF000294FF0004801DD18B90FE00ED196
:1011300040450CD319EB02095F4121B9404502D16A
:101140009F4329EA0209BBEB175F00D0761C208879
:10115000000502D57B48784402E07A487844193883
:1011600008AA302302F80A30037C0AF10101002E9C
:101170000AF1020A53546A4602DC4FF0300101E0E2
:101180004FF031014FF001088DF8001002D0A6F2A7
:10119000FF3603E059EA470100D06B4E002D02DC18
:1011A0002178090704D54FF002082E218DF801108F
:1011B000C44600210BE0C7F303433F01C35C491C55
:1011C0006D1E02F80830052908F1010801DA002D2A
:1011D000F1DC00210CE000EB1973491C1B786D1E3B
:1011E000082902F808304FEA091908F1010801DA64
:1011F000002DF0DC21688B0602D516E0A8F101086D
:10120000E04505DD02EB080313F8013C302BF5D077
:10121000B8F1000F09DD02EB080313F8013C2E2B97
:1012200003D1090701D4A8F10108002D05DD3E21F5
:1012300002F808106D1E08F10108407C002E02F82B
:10124000080008F1010804DA2D20764202F80800AF
:1012500002E02B2002F808000A214FF47A7086423F
:1012600008F101080BDB96FBF0F3303302F808308D
:1012700096FBF0F308F1010800FB136601E0642E11
:101280000CDB642096FBF0F3303302F8083096FB59
:10129000F0F308F1010800FB136601E00A2E06DBFB
:1012A00096FBF1F0303002F8080008F1010896FBD7
:1012B000F1F001FB1060303002F80800A16908F17C
:1012C000010808EB050202EB0A00081AA061207869
:1012D000C00602D42046FFF71BF9216A08AE01EBD5
:1012E0000A00206204E0D4E9012116F8010B9047BE
:1012F000BAF1010AF7D22078C00602D52046FFF7DE
:1013000007F96E4609E016F8010B3E280FD0D4E924
:1013100001219047206A401C2062B8F10108F2D2F6
:101320002046FFF70BF909B00320BDE8F08F206AD3
:101330002844206203E0D4E90121302090476D1E4B
:10134000EBD3F8E7C22C000002FCFFFF10B54369A5
:1013500013B1AFF3008001E0FFF713F9012010BDD6
:10136000127800F124010A7000224A700122EDE790
:1013700011684FF0FF32E9E710B5436913B1AFF3DD
:10138000008001E0FFF794F9012010BD128800F100
:10139000240182840022C2840122EDE711684FF00B
:1013A000FF32E9E770B516460C46054600F066F8D0
:1013B000036893F80101012806D0FF2C0FD8185DAF
:1013C00068B101202C7070BDD3F807013246214668
:1013D00003F2071303442846BDE8704018474FF056
:1013E000FF3070BD10B500F015F9BDE8104000F0F9
:1013F0000CB930B503461D781DB10A4603E0AC4276
:1014000001D1181A30BD12F8014B002CF7D15B1C2A
:10141000F1E730B503461D783DB10A4612F8014B9D
:101420001CB1AC42FAD15B1CF5E7181A30BD70470D
:101430007546FFF741FBAE4605006946534620F06E
:101440000700854618B020B5FEF706FFBDE820402E
:101450004FF000064FF000074FF000084FF0000B70
:1014600021F00701AC46ACE8C009ACE8C009ACE823
:10147000C009ACE8C0098D467047000010B500F007
:1014800005F8001D10BD00BFCD27000000487047C3
:10149000840100202DE9F0411F460446032601681F
:1014A000072A01F4006004DB08B116A505E016A5C3
:1014B00003E008B115A500E015A521F0100020609B
:1014C000A069C01EA0610FB1401EA0612046FFF7B9
:1014D0001FF84FB1D4E9012138469047206A401CDB
:1014E0002062C01C206206E0206AFAE7D4E90121EC
:1014F00015F8010B9047761EF8D22046FFF71EF82C
:10150000BDE8F0814E414E006E616E00494E4600CE
:10151000696E66002DE9F047814616468AB0354867
:1015200078440DC88DE80D0032487844801C03AC27
:101530000DC884E80D0041F69B300844372190FB2C
:10154000F1F290FBF1F5A5F1800501FB12041B3CC3
:1015500002D56442012000E00020DFF898A0804618
:101560000027FA44AAF1BE0A0EE0E0070AD032468C
:10157000684607EB470101230AEB810100F029FBD4
:101580008DE8070064107F1C002CEED1194F7F44BA
:10159000AE3F19E0E80715D007EB04100DF1180A6B
:1015A00090E80E008AE80E00C068F04201D1981958
:1015B00008903246012306A903A800F00AFB03ABFA
:1015C00083E807006D10641C002DE3D14FF0010388
:1015D00032466946B8F1000F03A802D000F0E4FAE1
:1015E00001E000F0F6FAC9E90001C9F808200AB0E4
:1015F000BDE8F0878829000010B50446AFF30080ED
:101600002046BDE81040FEF712BE002801D000F0D1
:1016100029B8704710B5012805D0002103A000F0BB
:1016200027F8012010BD09A1F8E7000053494752EF
:10163000544D454D3A204F7574206F6620686561A2
:1016400070206D656D6F7279000000003A2048656A
:101650006170206D656D6F727920636F7272757045
:101660007465640001491820ABBEFEE72600020045
:1016700070B505460C460A2000E06D1C00F011F81C
:1016800035B128780028F8D102E0641C00F009F890
:1016900014B120780028F8D1BDE870400A20AFF3DB
:1016A000008008B569468DF800000320ABBE08BD78
:1016B0005FEA400C08BF91F0000F4FEA8C234FEA1D
:1016C000C12243EA51514FEA1C5018BF00F5F040C7
:1016D0004FEA300018BF41F000415FEA6C5C00F057
:1016E0002980BCF1FF3F08BF40F080407047130CD9
:1016F00006BF12044FF0100C4FF0000C130E04BF85
:1017000012020CF1080C130F04BF12010CF1040CAF
:10171000930F04BF92000CF1020CD30F04BF5200D0
:101720000CF1010C11464FF00002A0F11F00A0EBDC
:101730000C00704711F0004F08BF704731F00041B6
:101740003FF4D5AF0B0C06BF09044FF0100C4FF05F
:10175000000C0B0E04BF09020CF1080C0B0F04BFA8
:1017600009010CF1040C8B0F04BF89000CF1020C71
:10177000CB0F04BF49000CF1010CCCF12003A0EB0E
:101780000C0022FA03F302FA0CF241EA030100F121
:101790000100704720F07F4C80EA030023F07F4770
:1017A000ACEB070303F57C5300F0004003F1FF03AB
:1017B0002DE980494FEA154B09B44FEA144325EA55
:1017C0000B4E24EA03480FF2042606EB13274908C0
:1017D0003E785FEA320203FB0667C7F5000707FBA6
:1017E00006F64FEA54374FEAD64606F1020607FBE3
:1017F000066CCCF1005C4FEA1C472CEA074C07FB57
:1018000006F40CFB06F504EB15464FEA961634BFBA
:1018100000204FF000404FEAD13706FB07FC4FEAAB
:101820001C4C0CFB0BF7D21B03FB0CF761EB070105
:101830000CFB0EF7B0EB074072EB17420CFB08F7FE
:1018400034BFA2EB0742B2EB074261EB17414FEA0C
:101850000C444FEA910706FB07FC4FEA1C4C0CFBBB
:101860000BF7B0EBC74072EB573203FB0CF734BFFA
:10187000A2EBC742B2EBC74261EB57310CFB0EF74C
:10188000B0EBC70072EB57720CFB08F734BFA2EB4A
:10189000C702B2EBC70261EB5771039F4FEA816148
:1018A00041EA921104EBCC044FEAD1374FEA82624D
:1018B00006FB07FC42EA90124FEA80604FEA1C4C9C
:1018C0000CFB0BF7D21B03FB0CF761EB07010CFBC6
:1018D0000EF7B0EB074072EB17420CFB08F734BF72
:1018E000A2EB0742B2EB074261EB17414FEA8C557E
:1018F0004FEA910704EB9C2406FB07FC4FEA1C4CC3
:101900000CFB0BF7B0EBC74072EB573203FB0CF745
:1019100034BFA2EBC742B2EBC74261EB57310CFBBD
:101920000EF7B0EBC70072EB57720CFB08F734BF31
:10193000A2EBC702B2EBC70261EB577115EB4C2566
:101940004FEA816141EA92114FEA82624FEAD13750
:1019500042EA901206FB07FC44F100044FEA806063
:101960004FEA1C4C0CFB0BF7D21B03FB0CF761EB93
:1019700007010CFB0EF7B0EB074072EB17420CFBB4
:1019800008F734BFA2EB0742B2EB074261EB174105
:1019900015EB1C154FEA813141EA92414FEA823240
:1019A00042EA90424FEA80304FEA0C7644F100045C
:1019B00048EA03434EEA0B484FF0000EB2EB080C26
:1019C00071EB030724BF624639464EEB0E0E4FF013
:1019D000000B0018524149414BEB0B0BB2EB080CCA
:1019E00071EB03077BF1000B24BF624639464EEBD7
:1019F0000E0E4FF0000B0018524149414BEB0B0B00
:101A0000B2EB080C71EB03077BF1000B24BF6246BD
:101A100039464EEB0E0E51EA020718BF46F001069A
:101A200016EB0E7655F1000254F1000103D5BDE826
:101A30008901BDE80088BDE88901BDE80048B61904
:101A4000524141EB0101A3F10103704780807F7E89
:101A50007D7C7B7A79787776767574737271717024
:101A60006F6E6E6D6C6C6B6A6A69686867666665D6
:101A70006464636362616160605F5F5E5E5D5D5C64
:101A80005C5B5B5A5A5959585857575656555555D5
:101A90005454535352525251515050504F4F4F4E35
:101AA0004E4D4D4D4C4C4C4B4B4B4A4A4A49494983
:101AB00048484847474747464646454545444444C5
:101AC000444343434342424242414141002B9C46EE
:101AD00030D477002BD01CB54FEA370703B44FF052
:101AE00010004FF01001BAF1000F06D0BCF1000F4A
:101AF000DCBF40F0080040F008014FF000000FBCD0
:101B0000BDE810400BF1010BBBF1010F08BF5FEA0C
:101B1000170722BF12F1010211F101014FF000413C
:101B200043F1000300F0004043EA00007047F9D39E
:101B30005708D0E746EA064613F1400F4FEA16462B
:101B40001FDD13F1200FDFBF16430A4600212033AB
:101B50005B42BED0C3F1200746EA064602FA07F709
:101B60004FEA164646EA0706C3F1200722FA03F2B7
:101B700001FA07F721FA03F14FF0000342EA0702E6
:101B8000A7E746EA020646EA06464FEA164646EA4E
:101B90000106BCBF46EA0646360C4FF000034FF084
:101BA00000024FF0000194E72DE9804C9A469346DD
:101BB00070B491E8380007C831EA400C48BF34EAF5
:101BC000430C03D5FFF7E6FDFFF780FFF0BCBDE84F
:101BD000008C2DE9804C9A46934670B491E8380009
:101BE00007C810F0804F08BF13F0804F03D100F0FA
:101BF00005F8FFF76BFFF0BCBDE8008C20F07F47D5
:101C000080EA030023F07F4C07EB0C03A3F57C5321
:101C100000F00040A3F1FE0392F0000F00F0B3804B
:101C200095F0000F00F077802DE901494FEA11404F
:101C30004FEA144621EA004800FB06FC24EA064766
:101C400008FB06F607FB08F800FB07F718EB064849
:101C50004CEB164C4FEA124B18EB07484FEA15466F
:101C60004CEB174022EA0B4E0BFB06FC25EA06471D
:101C70000EFB06F607FB0EFE0BFB07F71EEB064EF0
:101C80004CEB164C4FF000061EEB074E4CEB174B7F
:101C900018EB0B0840F1000018EB0E0B58EB000896
:101CA00040F100008F1A4FF000013CBFC943661B92
:101CB00014BFB5EB040C00213CBFC943F61B4FEA2F
:101CC00017444EEA8E0E27EA04454FEA1C4704FBF0
:101CD00007622CEA074C05FB07F70CFB05F604FB33
:101CE0000CFC16EB074642EB174216EB0C4642EB98
:101CF0001C421BEB060658EB0202414146EA9E06D7
:101D000001D5BDE80189B619524141EB0101A3F1AA
:101D10000103BDE801894FEA14454FEA114724EA5F
:101D2000054621EA074C05FB07F406FB07F70CFB09
:101D300006F105FB0CFC11EB074144EB17444FEA9D
:101D4000124711EB0C4144EB1C4422EA074C05FB03
:101D500007F206FB07F70CFB06F605FB0CFC16EB7F
:101D6000074642EB174216EB0C4642EB1C456A183D
:101D700054F1000148BF7047B619524141EB0101CF
:101D8000A3F10103704795F0000F37D04FEA1142DD
:101D90004FEA144721EA024624EA074C02FB07F106
:101DA00006FB07F70CFB06F402FB0CFC14EB0744E4
:101DB00041EB17414FEA154714EB0C4441EB1C4132
:101DC00025EA074C02FB07F506FB07F70CFB06F6B6
:101DD00002FB0CFC16EB074645EB174516EB0C46D1
:101DE00045EB1C42121951F1000148BF7047B6196A
:101DF000524141EB0101A3F1010370474FEA144541
:101E00004FEA114724EA054621EA074C05FB07F192
:101E100006FB07F70CFB06F24FF0000605FB0CFC77
:101E200012EB074241EB174112EB0C4251EB1C4104
:101E300048BF7047921841EB0101A3F101037047BD
:101E4000FEE7000070B50024282001F0E7FC0D4DEE
:101E50000221284600F016FA58B9502001F0DEFCA5
:101E60000221284600F00EFA08B1012401E04FF0EB
:101E7000FF340221284600F005FA0028F9D1204657
:101E800070BD00000008014070B5054600F056F82E
:101E9000FFF7D8FF114C207000F022F8607000F0BE
:101EA0001FF8A07000F01CF8E07000F019F8207125
:101EB00000F016F8E0806678A17823797218E1784E
:101EC0000A441A44824207D1084601F00BFF2860F9
:101ED000304601F007FF686070BD0000140000206C
:101EE0002DE9F0410024144F01260221384600F06C
:101EF000C9F90028F9D0282001F090FC02213846C9
:101F000000F0C0F990B1C4F1070106FA01F02843CE
:101F1000C5B20221384600F0B5F90028F9D1641C99
:101F2000E4B2082CE1D32846BDE8F081C4F10700F3
:101F300006FA00F08543ECE70008014010B500F018
:101F40001FF80E4C0221204601F060F90022022108
:101F5000204600F09CF944F2506001F05FFC012241
:101F60000221204600F093F9142001F057FC20468E
:101F7000BDE81040022101F03FB900000008014017
:101F80000E48016821F080710160016841F08071A4
:101F900001600B48016821F001010160016841F016
:101FA000010101600021416000BF00BF00BF406827
:101FB00008B100207047012070470000FCED00E0F0
:101FC000001000E0704710B590F82110002202299F
:101FD00005D00421816380F82020012010BD016814
:101FE0000B6823F00E030B6001680B6823F00103FC
:101FF0000B6090F84030C46B012101FA03F3636079
:1020000080F8211080F82020104610BD10B590F8FF
:1020100021100024022903D00421816301243DE022
:1020200001680A6822F00E020A6001680A6822F05C
:1020300001020A601A4A0168914201D1012121E09E
:10204000174A1432914201D110211BE0144A283260
:10205000914201D1891515E0114A3C32914201D1DA
:1020600089140FE00E4A5032914202D14FF4803170
:1020700008E00B4A6432914202D14FF4801101E032
:102080004FF08071064A083A5160012180F8211012
:10209000002180F82010416B01B18847204610BD17
:1020A000080002402DE9F84FDFF8B8910024A9F1AB
:1020B000040B23460F2709F1040AABF1040EC9E013
:1020C0000125A5402A40AA427DD1674ED1F804C01F
:1020D000ACEB0608B44532D014DCBCF1030F3AD0A7
:1020E00009DCBCF1000F2AD0BCF1010F1CD0BCF1FF
:1020F000020F31D11DE0BCF1110F17D0BCF1120F4E
:102100002AD119E0B8F5881F19D006DCB8F5803F50
:1021100015D0B8F5801F1FD111E0B8F5001F0ED003
:10212000B8F5041F18D10AE0CB6815E0CB681B1D79
:1021300012E0CB6808330FE0CB680C330CE08B68FF
:102140002BB1012B4FF0080303D0456104E00423B9
:1021500002E0056100E00023FF2A01D8064601E005
:1021600000F104064FEA840501D9A5F12005D6F84F
:10217000008007FA05FC28EA0C0803FA05F548EA8E
:102180000508C6F800804D68ED0062D5374DAE6990
:1021900046F00106AE61AD6924F0030605F00105C5
:1021A0000095334D06EB050CDCF80850A607360FFA
:1021B00007FA06F825EA0805DFF8B880404503D19C
:1021C0004FF0000817E044E0DFF8AC80404502D152
:1021D0004FF001080FE0DFF8A480404502D14FF036
:1021E000020808E0DFF89880404502D14FF003086C
:1021F00001E04FF0040808FA06F848EA0508CCF8B0
:1022000008804D68D9F80060ED024D4601D51643AF
:1022100000E096432E604D68DAF80060AD02554646
:1022200001D5164300E096432E604D68DBF8006050
:10223000AD035D4601D5164300E096432E604D6820
:10224000DEF80060ED03754601D5164300E09643C5
:102250002E60641C0D682A46E5407FF431AFBDE86E
:10226000F88F000008040140000011100010024027
:102270000000014000080140000C01400010014036
:10228000001401408068084000D0012070470AB166
:10229000016170470904FBE701488068704700004E
:1022A0000400002002488168027811448160704770
:1022B00004000020074810B5016841F010010160DA
:1022C000032000F075F80F2000F006F800F024F865
:1022D000002010BD0020024070B50D4D04464FF4A3
:1022E0007A712878B1FBF0F00A490968B1FBF0F087
:1022F00000F0E2FA48B9102C07D200222146501E05
:1023000000F036F800206C6070BD012070BD000048
:1023100004000020100000200C4808B5816941F03D
:1023200001018161816901F001010091C16941F000
:102330008051C161C06900F080500090044841683C
:1023400021F0E06141F00071416008BD00100240E1
:1023500000000140002809DB00F01F02012191402C
:102360004009800000F1E020C0F800117047000033
:10237000F0B40E4B1B680C46C3F30223C3F10705F0
:10238000042D00D90425191D072901D2002300E0DE
:10239000DB1E012606FA05F1491E214099409E40A8
:1023A000761E16403143F0BC01F0E9B90CED00E0B7
:1023B000064900F0070208684FF6FF03184040EA9C
:1023C0000220034A10430860704700000CED00E053
:1023D0000000FA052DE9F0470F46050061D0434E95
:1023E000306800F00700B84209D2306820F00700DA
:1023F00038433060306800F00700B84251D1286897
:102400003B4C810712D5400703D5606840F4E0607B
:1024100060602878000703D5606840F46050606011
:102420006068A96820F0F000084360602878C00761
:1024300028D06868012810D02168022810D08907A8
:1024400000292EDA616821F0030101436160FFF782
:1024500023FF804641F288390DE021688903EFE7C8
:102460008901EDE7FFF718FFA0EB0801494502D904
:102470000320BDE8F0876068696800F00C00B0EBED
:10248000810FEFD1306800F00700B8420BD93068F7
:1024900020F0070038433060306800F00700B84291
:1024A00001D00120E5E72878400705D56068E96894
:1024B00020F4E060084360602878000706D5606873
:1024C000296920F4605040EAC100606000F03EF8E5
:1024D0006168084AC1F30311515CC84006490860AD
:1024E00006480068FFF7F8FE0020C2E7002002401F
:1024F00000100240B03D000810000020080000203D
:102500000148006870470000100000200448054999
:1025100000684968044AC1F30221515CC840704711
:102520001000002000100240C03D0008044805498A
:1025300000684968044AC1F3C221515CC840704731
:102540001000002000100240C03D00080E4A5168F3
:102550000E4801F00C03042B11D0082B0FD10C48AE
:10256000C1F38343C903C05C0AD55168084AC1F36B
:102570004041921E515C054A5043B0FBF1F0704758
:1025800004494843704700000010024000127A00DE
:10259000A03D000800093D002DE9F84F040070D06F
:1025A0002078C04DC00749D06868C0F38100012879
:1025B00007D06868C0F38100022809D16868C003A9
:1025C00006D52868800339D560680028E7D035E053
:1025D0006068B0F5803F0BD010B1B0F5A02F11D0DE
:1025E000286820F480302860286820F4802002E0E9
:1025F000286840F480302860606890B1FFF74CFE96
:1026000006460AE0286840F480202860F0E700BF12
:10261000FFF742FE801B642873D828688003F7D533
:102620000CE0FFF739FE064605E000BFFFF734FE79
:10263000801B6428F0D828688003F7D420789A4E4D
:1026400080074FF001094FF0000839D5686810F095
:102650000C0F07D06868C0F38100022809D16868B0
:10266000C00306D42868800714D52069012808D142
:1026700010E02069B0B1C6F80090FFF70DFE0746E4
:1026800005E00AE1FFF708FEC01B0228C4D828684D
:102690008007F7D52868616920F0F80040EAC1009A
:1026A00028600DE0C6F80080FFF7F6FD074604E05D
:1026B000FFF7F2FDC01B022823D828688007F7D453
:1026C000207800072CD57948A169D9B1C0F80090CD
:1026D000FFF7E2FD074604E0FFF7DEFDC01B02281E
:1026E0000FD8686A8007F7D571484FF4FA5100682F
:1026F000B0FBF1F0009000BF0098411E0091FAD2AB
:102700000EE080E0C0F80080FFF7C6FD074604E059
:10271000FFF7C2FDC01B022875D8686A8007F7D48E
:102720002078400760D5E8690027C00008D4E86930
:1027300040F08050E861E869012700F08050009087
:102740005C480168C90513D40168834641F480716F
:102750000160FFF7A1FD824606E000BFFFF79CFD88
:10276000A0EB0A0064284ED8DBF80000C005F5D5C0
:10277000E06801280AD008B1052813D0286A20F0A3
:1027800001002862286A20F0040002E0286A40F074
:1027900001002862E06841F2883B98B1FFF77CFDB8
:1027A00082460BE0286A40F004002862EEE700BF92
:1027B000FFF772FDA0EB0A0159455AD8286A800735
:1027C000F6D50CE0FFF768FD824605E0FFF764FDF3
:1027D000A0EB0A0159454CD8286A8007F6D41FB1EE
:1027E000E86920F08050E861E06988B36968C1F366
:1027F0008101022944D00228C6F8608004D0FFF786
:102800004BFD044638E034E0FFF746FD074604E0A0
:10281000FFF742FDC01B02282BD828688001F7D49F
:10282000206AB0F5803F05D16868A16820F40030C7
:1028300008436860D4E908010843696821F4741109
:1028400008436860C6F86090FFF726FD044606E07E
:1028500025E000BFFFF720FD001B022809D82868EB
:102860008001F7D51BE000BFFFF716FD001B022813
:1028700002D90320BDE8F88F28688001F4D40EE067
:102880000128F7D06868226A00F48031914204D1AF
:10289000616A00F47010884201D00120EAE700204C
:1028A000E8E700000010024000004242800442427B
:1028B000100000200070004010B5401EB0F1807F75
:1028C00001D3012010BD4FF0E02460610F2160179B
:1028D00000F055FF0020A06107202061002010BDFE
:1028E00070B590F83C20012A26D0012480F83C40A5
:1028F000022280F83D2003685A689D6822F0700625
:102900000A6832435A600D4B02689A4208D0B2F10D
:10291000804F05D00A4B9A4202D00A4B9A4204D10A
:10292000496825F080031943916080F83D400021FB
:1029300080F83C10084670BD022070BD002C01409C
:10294000000400400008004010B5040003D094F8D3
:102950003D0010B107E0012010BD002084F83C00CC
:10296000204600F01FF8022084F83D00211D206859
:1029700000F08AFC012084F8460084F83E0084F8C8
:102980003F0084F8400084F8410084F8420084F855
:10299000430084F8440084F8450084F83D0000209A
:1029A00010BD000008B50068B0F1804F08D105489F
:1029B000C16941F00101C161C06900F001000090EE
:1029C00008BD00000010024070B5044690F83C00BD
:1029D0000025012817D0012684F83C60022084F8E5
:1029E0003D002068826822F0770222F47F428260F4
:1029F0000868502838D00DDC20284FD005DC90B373
:102A0000102811D14AE0022070BD302846D040285D
:102A10000AD13BE060282FD070280DD0B0F5805F40
:102A200003D0B0F5005F12D0012584F83D6000208E
:102A300084F83C00284670BDCB68D1E901212068AC
:102A400000F065FC2068816841F0770109E0CB68FF
:102A5000D1E90121206800F05AFC2068816841F426
:102A600080418160E1E719E0CA684968206800F0A8
:102A700003FD5021206806E0CA684968206800F01C
:102A80000CFD6021206800F04CFCCEE7CA68496864
:102A9000206800F0F1FC40212068F4E7226801463C
:102AA0001046F0E700B585B0002100910191029138
:102AB00003910068B0F1804F11D10A48816941F05B
:102AC000040181618069694600F0040004900120DE
:102AD00000900220019003900348FFF7E3FA05B04D
:102AE00000BD0000001002400008014070B504461F
:102AF00090F83C0000260D4601280FD0012084F8F4
:102B00003C006AB1042A1DD0082A2FD00C2A3FD0DD
:102B10000126002084F83C00304670BD022070BDC4
:102B2000206800F007FC2068816941F0080181619C
:102B30002068816921F004018161206881692A6926
:102B4000114311E0206800F01DFC2068816941F408
:102B5000006181612068816921F480618161206860
:102B600081692A6941EA02218161D2E7206800F087
:102B700035FC2068C16941F00801C1612068C16964
:102B800021F00401C1612068C1692A69114311E083
:102B9000206800F04FFC2068C16941F40061C16108
:102BA0002068C16921F48061C1612068C1692A6916
:102BB00041EA0221C161ACE710B5040003D094F8EA
:102BC0003D0010B107E0012010BD002084F83C005A
:102BD000204600F01EF8022084F83D00211D2068E8
:102BE00000F052FB012084F8460084F83E0084F88F
:102BF0003F0084F8400084F8410084F8420084F8E3
:102C0000430084F8440084F8450084F83D00002027
:102C100010BD704710B50446022249B104290ED0F8
:102C2000082913D094F84100012816D0012010BDC6
:102C300094F83E000128F9D184F83E200FE094F882
:102C40003F000128F2D184F83F2008E094F84000CA
:102C50000128EBD184F8402001E084F841200122D2
:102C6000206800F047FB0F492068884203D1426C7E
:102C700042F4004242642068884208D0B0F1804F9C
:102C800005D00949884202D00849884204D18168A8
:102C900001F00701062903D0016841F0010101603C
:102CA000002010BD002C014000040040000800403E
:102CB00030B504460D460068002200F01BFB174BA0
:102CC00041F2111120688A10984209D1036A0B421F
:102CD00006D1036A134203D1436C23F400434364D7
:102CE0002068036A0B4206D1016A114203D10168D0
:102CF00021F00101016001203DB1042D08D0082D13
:102D000009D084F84100002030BD84F83E00FAE785
:102D100084F83F00F7E784F84000F4E7002C014016
:102D200070477047F8B5016804460868CA684B697F
:102D300010F00F0F4FF0000559D003F0010602F418
:102D40009077374365D0C10705D0D10503D5616CB5
:102D500041F001016164410705D5D90703D0616CD9
:102D600041F002016164810705D5D90703D0616C88
:102D700041F004016164010707D502F020013143ED
:102D800003D0616C41F008016164616C00293AD0A4
:102D9000800604D5900602D5204600F0BFFB2068CF
:102DA0004069616CC0F38010090700D460B320460D
:102DB00000F08DFB20684069400621D52068143062
:102DC00050E8001F21F0400140E80012002AF5D130
:102DD000E06BA8B16D494163E06BFFF717F900287C
:102DE00011D0E06B416B01B0BDE8F04008478306AD
:102DF0000FD593060DD52046BDE8F84000F08EBBF8
:102E00002046FFF78EFFF8BD2046FFF78AFF656476
:102E1000F8BD266B2023012E7CD1C6067AD5D606B6
:102E200078D508684868009048694FF00206400667
:102E300040D5E16B086840680004000CE8D0A28D22
:102E40008242E5D9E085886920282DD020680C30A1
:102E500050E8001F21F4807140E80012002AF5D1EB
:102E60002068143050E8001F21F0010140E80012F2
:102E7000002AF5D12068143050E8001F21F04001ED
:102E800040E80012002AF5D184F84230256320681A
:102E90000C3050E8001F21F0100140E80012002A19
:102EA000F5D1E06BFFF78FF86663A08DE18D401AD6
:102EB00081B22AE0A08DE18D401A81B2E08D002818
:102EC000A6D00029A4D022680C3252E8000F20F4CA
:102ED000907042E80007002FF5D12068143050E8C8
:102EE000002F22F0010240E80027002FF5D184F8DE
:102EF0004230256320680C3050E8002F22F0100289
:102F000040E80023002BF5D166632046FFF708FF59
:102F1000F8BDFFE705062BD5150629D594F8410025
:102F20002128F5D1A068B0F5805F01D12069B0B14A
:102F3000206A411C2162216800784860E08C401EB4
:102F40000004000CE084E3D12068C16821F0800116
:102F5000C1602068C16841F04001C160D8E7206AC3
:102F60000088C0F308004860206A801C2062E5E702
:102F70004006CDD55006CBD5CA68204622F0400287
:102F8000CA6084F8413000F0E6F8C1E7BF340008B9
:102F900070B5040004D094F84100002510B106E09B
:102FA000012070BD84F84050204600F023F8242012
:102FB00084F841002068C16821F40051C1602046B6
:102FC00000F00EFB2068016921F490410161206846
:102FD000416921F02A0141612068C16841F4005132
:102FE000C1606564202084F8410084F84200656374
:102FF000002070BD30B585B0002400940194029487
:1030000003940068184988422BD11848C16941F4DB
:103010000031C161C16901F400310491816941F05D
:10302000040181618069124D00F0040004900420C5
:103030000090022001900320039069462846FFF784
:1030400031F80820CDE90004694628460294FFF7CC
:1030500029F8002201212620FFF78AF92620FFF710
:1030600079F905B030BD0000004400400010024076
:103070000008014090F84230202B01D00220704718
:1030800021B11AB10023036300F006BB0120704791
:1030900010B508490068096888420AD1012206492A
:1030A0000448FFF7E7FF04480078BDE8104000F04F
:1030B0004DBD10BDB8000020000000202DE9F843F0
:1030C000044690F841001F4616460D46202802D0BF
:1030D0000220BDE8F8837DB176B100206064212034
:1030E00084F84100FFF7D8F8A6848046E684A068FB
:1030F000B0F5805F02D003E00120EAE7206910B15B
:103100002E4600250EE000260CE08021204600F02F
:10311000DEFAA0B9AEB116F8010B21684860E08C68
:10312000401EE084E08C43464FF0000200970028E8
:10313000EBD14FF04001204600F0C9FA30B1032036
:10314000C7E735F8020BC0F30800E6E7202084F853
:1031500041000020BDE77047FEE7000010B58EB0CB
:1031600000240794089409940A940B941C2168463F
:103170000C94FDF710F91D484FF0804101602321A8
:10318000C0E901146321C0E903148461FFF7DCFB8B
:1031900008B172B6FEE74FF48050079007A91348B4
:1031A000FFF712FC08B172B6FEE71048FFF704FD06
:1031B00008B172B6FEE70B940BA90C480C94FFF70C
:1031C0008FFB08B172B6FEE76020CDE900040294DF
:1031D0000022694605480494FFF788FC08B172B6DE
:1031E000FEE70248FFF75EFC0EB010BD7000002045
:1031F000FEE7FEE7704770471FB50022009101927D
:10320000029203926946FEF74DFF1FBD1FB50022D3
:1032100000910121CDE90112022103916946FEF7D7
:1032200041FF1FBDFFF73EB830B58FB0282168467B
:10323000FDF7B1F814210AA8FDF7ADF80121080443
:10324000CDE900100024029402250491CDE9075035
:103250004FF4E01009906846FFF79EF908B172B686
:10326000FEE70F20CDE90A054FF48060CDE90C4060
:1032700002210AA80E94FFF7ADF8002801D072B61B
:10328000FEE70FB030BD7047F0B50268164B174C23
:10329000174D4FF08047984205D0B84203D0A04266
:1032A00001D0A84203D122F070064A683243984206
:1032B00005D0B84203D0A04201D0A84203D122F4E5
:1032C0004074CA6822434C6922F0800222430260A3
:1032D0008A68C2620A688262984201D10969016300
:1032E00001214161F0BD0000002C014000040040BC
:1032F0000008004010B501F01F030121046A994045
:103300008C430462016A9A401143016210BD10B5FA
:10331000846842EA032224F47F440A432243826001
:1033200010BD826822F070020A4342F007018160FA
:103330007047000030B5036A026A22F0010202629F
:103340004268846924F073050C682C4323F002055D
:103350008B682B430A4DA8420BD123F00805CB689C
:1033600022F440722B434D6923F0040315438A690C
:103370002A434260846149684163036230BD0000B2
:10338000002C014030B5026A036A23F01003036287
:10339000436884690D6824F4E64444EA05248D6892
:1033A00022F0200242EA05120B4DA8420ED1CD6850
:1033B00022F0800242EA05124D6923F4406343EA99
:1033C00085038D6922F0400243EA850343608461EE
:1033D00049688163026230BD002C014030B5036A48
:1033E000026A22F4807202624268C46923F40073A4
:1033F00024F073050C682C438D6843EA05230C4DBB
:10340000A8420ED1CD6823F4006343EA05234D6939
:1034100022F4405242EA05128D6923F4806342EAA5
:1034200005124260C4614968C163036230BD000097
:10343000002C014030B5046A026A22F48052026214
:103440004268C3690D6823F4E64343EA05238D68A7
:1034500024F4005444EA0534064DA84204D14D69D1
:1034600022F4804242EA85124260C36149680164E5
:10347000046230BD002C014010B5036A046A24F0D8
:1034800001040462846924F0F00444EA021423F085
:103490000A020A438461026210BD10B5036A046A1D
:1034A00024F010040462846923F0A00324F470441F
:1034B00044EA023243EA01118261016210BD10B593
:1034C000406A0021C185C184FFF72BFC10BD016853
:1034D0000C3151E8002F22F4907241E80023002BB8
:1034E000F5D10168143151E8002F22F0010241E8C2
:1034F0000023002BF5D1016B012909D101680C31A2
:1035000051E8002F22F0100241E80023002BF5D1F2
:10351000202180F8421000210163704708B590F81F
:103520004210222901D0022008BD82684FF4805346
:103530009A4201D1016921B1816A9A421BD04AB1F4
:103540000AE00268816A5268C2F308020A80816A4E
:10355000891C08E0026972B10268526802F07F02B9
:103560000A70816A491C8162C18D491E0904090CD7
:10357000C18503D01BE002685268F1E70168CA68A0
:1035800022F02002CA600168CA6822F48072CA6010
:1035900001684A6922F001024A61202180F8421044
:1035A00000214163026B012A03D0FFF771FD002067
:1035B00008BD016301680C3151E8002F22F01002B0
:1035C00041E80023002BF5D101680A68D20602D534
:1035D0000A6849680091818DFFF7A2FBE7E70000C8
:1035E00070B5044600680169E26821F44051114356
:1035F00001612169A0680843616908432168CA68BC
:1036000041F20C639A430243CA6020684169A2698F
:1036100021F44071114341611E492068884202D162
:10362000FEF784FF01E0FEF771FF00EBC00101EB44
:103630000012606864218000B2FBF0F3B3FBF1F389
:103640006FF018067343B2FBF0F5B2FBF0F605EB32
:103650008305322303EB0515B5FBF1F5B6FBF1F657
:1036600005F0F00505EB0615B2FBF0F6B2FBF0F045
:10367000B0FBF1F06FF01802504306EB800003EB53
:103680000010B0FBF1F0216800F00F0028448860C2
:1036900070BD00000038014081628285C285002132
:1036A0004164222180F84210016921B10168CA6891
:1036B00042F48072CA6001684A6942F001024A61BC
:1036C0000068C16841F02001C160002070472DE909
:1036D000F041984617460E460446069D27E0681CB2
:1036E00025D02DB1FEF7D8FDA0EB0800A8421ED9C9
:1036F00020680C3050E8001F21F4D07140E800121F
:10370000002AF5D12068143050E8001F21F0010193
:1037100040E80012002AF5D1202084F8410084F806
:103720004200002084F840000320BDE8F0812068BA
:10373000006836EA000004D00020B842CFD0002054
:10374000F3E70120F9E700000148FFF7EBBA0000BA
:10375000B8000020FEE7490050EAC12018BF04204D
:103760004A0D18BF40F0010040F2FF72B2EB515F0A
:1037700008BF40F00200012808BF05207047090774
:10378000090E002804DB00F1E02080F800147047E7
:1037900000F00F0000F1E02080F8141D7047303871
:1037A0000A2801D201207047002070472DE9F0411E
:1037B00005462820FCF762FD0646002414A1284691
:1037C00006E000BF46F82400641CE4B210A100200B
:1037D000FCF7BCFD0028F5D10E4D376804E03946F2
:1037E000FCF700FE20B1083568680028F7D106E034
:1037F000286820B1026821463046904702E006481A
:1038000000F0BCF93046BDE8F041FCF766BD0000B1
:10381000200000004C000020C43E000831B5084DD7
:103820006C68FEF76DFE0749B0FBF1F00099484364
:10383000009068680099001B8842FAD338BD0000E8
:10384000001000E040420F0010B504461448007814
:10385000002823D013A16068FCF7C4FD78B112A141
:103860006068FCF7BFFD78B110A16068FCF7BAFD95
:1038700000280ED00EA0BDE8104000F07FB9002057
:1038800000F09CF917A0F6E7012000F097F91EA0C0
:10389000F1E7022000F092F925A0ECE72DA0EAE77D
:1038A0002200002030000000310000003200000043
:1038B0005468652073706565642069732066726F53
:1038C0006D203020746F20322C20706C6561736520
:1038D0002073657420737065656420616761696E2B
:1038E000000000005375636365737366756C6C79D3
:1038F0002E205468652066616E20737065656420B3
:10390000697320534C4F5700537563636573736637
:10391000756C6C792E205468652066616E2073701A
:10392000656564206973204D454449554D0000008C
:103930005375636365737366756C6C792E20546878
:10394000652066616E207370656564206973204828
:10395000494748007468652066616E206973206E6F
:103960006F74206163746976652C20666972737464
:103970006C7920796F75206E65656420746F206F97
:1039800070656E20796F75722066616E00000000B0
:1039900010B5044640680CA1FCF724FD48B10BA10A
:1039A0006068FCF71FFD48B109A0BDE8104000F0B9
:1039B000E5B8002000F012F913A0F6E7012000F0AE
:1039C0000DF917A0F1E70000300000003100000001
:1039D00054686520737461746520617267756D65E4
:1039E0006E74206973206E6F742072696768742E1C
:1039F00020506C656173652063686F6F736520612B
:103A00006761696E000000005468652066616E2081
:103A10007374617465206973204F4646000000008E
:103A20005468652066616E207374617465206973E3
:103A3000204F4E0010B5012904D0BDE810400FA062
:103A400000F09CB81A48FEF71FFA1949A1F10804C2
:103A5000086820604968616000F018F902460B466A
:103A600014A000F08BF8606800F010F90246BDE881
:103A700010400B4612A000F081B800005468697332
:103A8000206765742074656D706572617475726508
:103A900020636F6D6D616E64206E656564206F6E6E
:103AA0006C79206F6E6520617267756D656E74004C
:103AB0002C00002074656D3A20252E32660000002F
:103AC00068756D3A20252E326600000008B5FEF7B5
:103AD000F1FBFFF7A9FB1948816941F020018161E1
:103AE000816901F020010091816941F00401816147
:103AF0008069134900F00400009012480C22016014
:103B00004FF4E131416000218160C160C0E90412DD
:103B10008161C161FFF73CFA08B172B6FEE7FFF7B9
:103B20001DFB084800F024F8012207490548FFF76B
:103B3000A1FA00BF00F066F8FCE7000000100240A8
:103B400000440040B800002000000020074A064B57
:103B50000A28117803D05854491C1170704700206E
:103B600058540120507070470001002020000020B0
:103B700001490860704700001C0000200FB410B518
:103B80009AB01DAA68461C99FCF7CEFB6846FCF764
:103B9000E3FB084C82B2642369462068FFF78EFA83
:103BA0006423012204A12068FFF788FA1AB010BC30
:103BB0005DF814FB1C0000200A000000064909689B
:103BC00030B1012806D0022801D10A20486370478D
:103BD0004620FBE72820F9E77000002010B50028F8
:103BE000064C07484FF0000104D0FFF713F80120FE
:103BF000207010BDFFF75CF80020F9E722000020DC
:103C00007000002010B5064C6078002806D021789E
:103C10000448FFF7CBFD00206070207010BD00004D
:103C2000200000200001002010B500290AD00878EB
:103C3000002807D005487844FCF7D4FB002801D0C1
:103C4000002010BD0248784410BD00004E03000063
:103C50004603000010B500290AD00878002807D0D4
:103C600005487844FCF7BEFB002801D0002010BDB9
:103C70000248784410BD00003E03000036030000F7
:103C80000808A0F500114FEA3101704743004FEAE0
:103C9000D30C4FEA3C0C43401FBF40070CF160516E
:103CA00013F0FE4F70471CF0006F03D100200CF0A2
:103CB000004170470CF0004343EA507010B540EAF1
:103CC000CC0000F022F800BF000000924FEA000193
:103CD000FFF7D6BF4FF000414FF00000A1F50021E3
:103CE00070470000B0FA80F310FA03F2C3F19D03AD
:103CF0000AD0D90501EB1220530638BF704700F1F6
:103D0000010008BF20F0010070470EF1020E2EF0F6
:103D1000030E5EF8044B244204D44FEA4102B2F190
:103D20007F4F11D84FEA4003B3F17F4F0CD80ED12B
:103D30004FEAD07CB2F17F4F0CEB4C0C0CF1020C33
:103D400008BF4CEBD17C04E04FF0080C01E04FEAD7
:103D5000D17C0CEB4C0324FA03F404F00704B4F117
:103D6000040C06D20EEB840CBDE810404CF0010CA4
:103D70006047DFE80CF0070802024FF00040A0F5B2
:103D8000800010BD0846420018BFD2F1807288BF83
:103D900000F0004010BDFDF724B8FDF759B901024D
:103DA00002030405060708090A0B0C0D0E0F10107C
:103DB00000000000000000000102030406070809DB
:103DC00000000000010203040000000000000000E9
:103DD0003031323334353637383941424344454641
:103DE000403058003031323334353637383961623B
:103DF000636465664030780004000008000000003D
:103E0000000000020001000010303132333435363A
:103E100037383961626364656678700030313233F7
:103E2000343536373839414243444546585000000E
:103E300002400000000000A000000000054000005B
:103E4000000000C8000000000C4000000000409C82
:103E500000000000194000000020BCBE000000006F
:103E600034400000BFC91B8E00000004B5400000B4
:103E7000504BCFD06607E2CF010000006C4100003C
:103E80003E8251AADFEEA73401000000D9420000B3
:103E9000DCB5A0E23A301F97FFFFFFFFB4450000FA
:103EA000FD25A0C8E9A3C14FFFFFFFFFFF3F0000B2
:103EB0000000008000000000FF3F000000000080C4
:103EC00000000000446F6E27742066696E642074E1
:103ED00068697320636C69206E616D652E20506C7B
:103EE0006561736520636865636B20616761696EF6
:103EF00020616E6420656E746572207269676874F3
:103F000020636C69000000006765742074656D7043
:103F10002066726F6D20646874313100736574209F
:103F20007374617465206F662066616E0000000026
:103F3000736574207370656564206F662066616EBA
:103F40000000000073657473706565640000000014
:103F50007365747374617465000000006765747440
:103F6000656D7000B0400008000000207000000087
:103F700028010008204100087000002058070000B8
:103F8000440100081C00000043000000F8FFFFFF90
:103F90000C0000000E0000000F0000002E000000CA
:103FA0001001000043000000F8FFFFFF0040404008
:103FB00040404040404041414141414040404040FC
:103FC00040404040404040404040404040050202A8
:103FD0000202020202020202020202020220202067
:103FE00020202020202020020202020202029090C3
:103FF00090909090101010101010101010101010C1
:104000001010101010101010020202020202888814
:104010008888888808080808080808080808080820
:104020000808080808080808020202024000000008
:104030000000000000000000000000000000000080
:104040000000000000000000000000000000000070
:104050000000000000000000000000000000000060
:104060000000000000000000000000000000000050
:104070000000000000000000000000000000000040
:104080000000000000000000000000000000000030
:104090000000000000000000000000000000000020
:1040A0000000000000000000000000000000000010
:1040B00000000000010000001000000000000000EF
:1040C0000024F400000000000000000000000000D8
:1040D00000000000000000000000000000000000E0
:1040E00000000000353A0008083F00089139000838
:1040F0001C3F000849380008303F00083400002009
:104100005C3F00083C000020503F000844000020B5
:10411000443F000800000000000000000000000014
:04000005080000ED02
:00000001FF
